:020000040800F2
:10000000600602207D0200088502000887020008C1
:10001000890200088B0200088D0200080000000021
:100020000000000000000000000000008F02000837
:1000300091020008000000009302000895020008E9
:10004000970200089702000897020008970200082C
:10005000970200089702000897020008970200081C
:10006000970200089702000897020008970200080C
:1000700097020008970200089702000897020008FC
:1000800097020008970200089702000897020008EC
:1000900097020008970200089702000897020008DC
:1000A00097020008970200089702000897020008CC
:1000B00097020008970200089702000897020008BC
:1000C00097020008970200089702000897020008AC
:1000D000970200089702000897020008970200089C
:1000E000970200089702000897020008970200088C
:1000F000970200089702000897020008970200087C
:10010000970200089702000897020008970200086B
:10011000970200089702000897020008970200085B
:10012000970200089702000897020008970200084B
:10013000970200089702000897020008970200083B
:10014000970200089702000897020008970200082B
:10015000970200089702000897020008970200081B
:10016000970200089702000897020008970200080B
:10017000970200089702000897020008000000009C
:1001800097020008970200089702000897020008EB
:1001900097020008970200089702000897020008DB
:1001A00097020008970200089702000897020008CB
:1001B00097020008970200089702000897020008BB
:1001C000970200089702000800000000970200084C
:1001D000970200089702000897020008970200089B
:1001E000970200089702000897020008970200088B
:1001F000970200089702000800F002F800F02EF8BD
:100200000AA090E8000C82448344AAF10107DA4571
:1002100001D100F023F8AFF2090EBAE80F0013F095
:10022000010F18BFFB1A43F001031847F401000047
:10023000040200000023002400250026103A28BFF5
:1002400078C1FBD8520728BF30C148BF0B60704748
:100250001FB500F0D8F81FBD10B510BD00F031F883
:100260001146FFF7F5FF00F073F800F04FF803B404
:10027000FFF7F2FF03BC00F057F800000948804781
:1002800009480047FEE7FEE7FEE7FEE7FEE7FEE778
:10029000FEE7FEE7FEE7FEE704480549054A064B90
:1002A0007047000039030008F901000860000220CF
:1002B0006006022060020220600202207047704740
:1002C0007047754600F02CF8AE4605006946534667
:1002D00020F00700854618B020B5FFF7DDFFBDE828
:1002E00020404FF000064FF000074FF000084FF09D
:1002F000000BAC46ACE8C009ACE8C009ACE8C009EA
:10030000ACE8C00921F007018D46704710B50446DE
:10031000AFF300802046BDE81040FFF7A8BF000003
:10032000004870470000022001491820ABBEFEE7DC
:1003300026000200704700004EF68851CEF2000100
:10034000086840F47000086070470000000000007A
:1003500081B00020009043F63002C4F2020211681E
:1003600041F002011160116841F00401116040F296
:100370000042C4F20202116843F6FC73CCF6FF732C
:1003800019401160116844F20103C1F200031943DE
:10039000116040F60002C4F20202116821F04061CF
:1003A000116040F60C02C4F20202116821F04061B3
:1003B000116040F20441C4F20201086040F20841B9
:1003C000C4F202010860FFE740F61000C4F2020028
:1003D0000068800400280AD5FFE740F21841C4F203
:1003E0000201086844F28102104308600AE040F20A
:1003F0001841C4F2020108680022C4F281021043CD
:100400000860FFE7E0E7F1EE100A4FF6FF71C0F277
:10041000C03120EA010040F04070E1EE100A704760
:1004200030040008000002206006000034020008CA
:04000005080001F9F5
:00000001FF
