:020000040800F2
:10000000600600201D0200082502000827020008E3
:10001000290200082B0200082D0200080000000041
:100020000000000000000000000000002F02000897
:100030003102000800000000330200083502000809
:1000400037020008370200083702000837020008AC
:10005000370200083702000837020008370200089C
:10006000370200083702000837020008370200088C
:10007000370200083702000837020008370200087C
:1000800037020008370200083702000800000000AD
:10009000000000000000000000000000370200081F
:1000A000370200083702000837020008370200084C
:1000B000370200083702000837020008370200083C
:1000C000370200083702000837020008370200082C
:1000D000370200083702000837020008000000005D
:1000E000370200083702000837020008000000004D
:1000F00000000000000000000000000037020008BF
:10010000000000003702000837020008370200082C
:1001100000000000000000000000000000000000DF
:1001200037020008370200083702000837020008CB
:10013000370200080000000000000000000000007E
:10014000000000000000000000000000370200086E
:10015000370200083702000837020008370200089B
:10016000370200083702000800000000000000000D
:10017000000000000000000000000000000000007F
:10018000000000003702000800000000000000002E
:10019000370200083702000800F002F800F02EF8DD
:1001A0000AA090E8000C82448344AAF10107DA45D2
:1001B00001D100F023F8AFF2090EBAE80F0013F0F6
:1001C000010F18BFFB1A43F001031847A0020000FB
:1001D000B00200000023002400250026103A28BFAA
:1001E00078C1FBD8520728BF30C148BF0B607047A9
:1001F0001FB500F02EF91FBD10B510BD00F031F88D
:100200001146FFF7F5FF00F0F5F800F04FF803B4E2
:10021000FFF7F2FF03BC00F057F8000009488047E1
:1002200009480047FEE7FEE7FEE7FEE7FEE7FEE7D8
:10023000FEE7FEE7FEE7FEE704480549054A064BF0
:10024000704700008D03000899010008600000203D
:1002500060060020600200206002002070477047A6
:100260007047754600F02CF8AE46050069465346C7
:1002700020F00700854618B020B5FFF7DDFFBDE888
:1002800020404FF000064FF000074FF000084FF0FD
:10029000000BAC46ACE8C009ACE8C009ACE8C0094A
:1002A000ACE8C00921F007018D46704710B504463F
:1002B000AFF300802046BDE81040FFF7A8BF000064
:1002C000004870470000002001491820ABBEFEE73F
:1002D000260002007047000043F64001C4F202010C
:1002E000086840F00200086040F22841C4F20001B2
:1002F0000F20086040F22C41C4F2000140F2E730C8
:10030000086040F20041C4F200010120086070471B
:1003100043F60000C4F2020000688007002814D4ED
:10032000FFE743F60001C4F20201086840F0010053
:100330000860FFE743F60000C4F20200006880078F
:10034000002801D4FFE7F5E7FFE743F60801C4F210
:1003500002010868086008680860086808600868A2
:1003600020F0030008600868086043F60041C4F20A
:10037000020140F20360086043F60001C4F202018A
:10038000086820F480300860704700004EF68851FD
:10039000CEF20001086840F4700008607047000069
:1003A00082B0019000200090FFE7009801998842F8
:1003B0001DD8FFE740F22441C4F20001002008608C
:1003C000FFE740F21040C4F200000068C00708B91F
:1003D000FFE7F6E740F21041C4F20001086820F0A0
:1003E00001000860FFE7009801300090DDE702B0EF
:1003F0007047000080B584B000200390FFF788FFAD
:10040000FFF76AFF43F63001C4F20201086840F0CA
:100410000400086040F60001C4F202014FF05530BC
:100420000860FFE740F61801C4F202010191086874
:1004300040F4005008604FF47A700290FFF7B0FF6C
:10044000019A0298116841F000511160FFF7A8FF6E
:10045000E8E7F1EE100A4FF6FF71C0F2C03120EA72
:10046000010040F04070E1EE100A70477C04000883
:0C0470000000002060060000D40100081D
:040000050800019955
:00000001FF
