:020000040800F2
:10000000680602207D0200088502000887020008B9
:10001000890200088B0200088D0200080000000021
:100020000000000000000000000000008F02000837
:1000300091020008000000009302000895020008E9
:10004000970200089702000897020008970200082C
:10005000970200089702000897020008970200081C
:10006000970200089702000897020008970200080C
:1000700097020008970200089702000897020008FC
:1000800097020008970200089702000897020008EC
:1000900097020008970200089702000897020008DC
:1000A00097020008970200089702000897020008CC
:1000B0009702000839040008970200089702000818
:1000C00097020008970200089702000897020008AC
:1000D000970200089702000897020008970200089C
:1000E000970200089702000897020008970200088C
:1000F000970200089702000897020008970200087C
:10010000970200089702000897020008970200086B
:10011000970200089702000897020008970200085B
:10012000970200089702000897020008970200084B
:10013000970200089702000897020008970200083B
:10014000970200089702000897020008970200082B
:10015000970200089702000897020008970200081B
:10016000970200089702000897020008970200080B
:10017000970200089702000897020008000000009C
:1001800097020008970200089702000897020008EB
:1001900097020008970200089702000897020008DB
:1001A00097020008970200089702000897020008CB
:1001B00097020008970200089702000897020008BB
:1001C000970200089702000800000000970200084C
:1001D000970200089702000897020008970200089B
:1001E000970200089702000897020008970200088B
:1001F000970200089702000800F002F800F02EF8BD
:100200000AA090E8000C82448344AAF10107DA4571
:1002100001D100F023F8AFF2090EBAE80F0013F095
:10022000010F18BFFB1A43F0010318471403000025
:10023000240300000023002400250026103A28BFD4
:1002400078C1FBD8520728BF30C148BF0B60704748
:100250001FB500F068F91FBD10B510BD00F031F8F2
:100260001146FFF7F5FF00F01BF900F04FF803B45B
:10027000FFF7F2FF03BC00F057F800000948804781
:1002800009480047FEE7FEE7FEE7FEE7FEE7FEE778
:10029000FEE7FEE7FEE7FEE704480549054A064B90
:1002A0007047000021040008F901000868000220DE
:1002B0006806022068020220680202207047704728
:1002C0007047754600F02CF8AE4605006946534667
:1002D00020F00700854618B020B5FFF7DDFFBDE828
:1002E00020404FF000064FF000074FF000084FF09D
:1002F000000BAC46ACE8C009ACE8C009ACE8C009EA
:10030000ACE8C00921F007018D46704710B50446DE
:10031000AFF300802046BDE81040FFF7A8BF000003
:10032000004870470000022001491820ABBEFEE7DC
:10033000260002007047000080B543F64001C4F279
:100340000201086840F00200086040F22841C4F24F
:10035000000143F67F60086040F22C41C4F20001C6
:1003600040F2E730086040F20C41C4F20001086836
:1003700040F00100086040F21041C4F2000108683A
:1003800020F0010008601D2000F072F840F20041EA
:10039000C4F200010120086080BD000000000000E0
:1003A00043F60000C4F2020000688007002814D45D
:1003B000FFE743F60001C4F20201086840F00100C3
:1003C0000860FFE743F60000C4F2020000688007FF
:1003D000002801D4FFE7F5E7FFE743F60801C4F280
:1003E0000201086808600868086008680860086812
:1003F00020F0030008600868086043F60041C4F27A
:10040000020140F20310086043F60001C4F2020149
:10041000086820F480300860704700000000000089
:100420004EF68851CEF20001086840F47000086072
:10043000704700000000000040F21040C4F20000CD
:100440000068C00788B1FFE740F26001C2F2020114
:100450000A7801209043087040F21041C4F2000174
:10046000086820F001000860FFE770470000000006
:1004700081B08DF803009DF9030000280ED4FFE73A
:100480009DF9031001F01F02012090404A094EF22D
:100490000011CEF2000141F82200FFE701B07047E1
:1004A00080B582B0002000900190FFF779FFFFF740
:1004B00043FF009843F63002C4F20202116841F093
:1004C0000201116040F20042C4F20202116841F0E0
:1004D0005531116040F20441C4F20201086040F25B
:1004E0000841C4F202010860FFE740F26000C2F276
:1004F00002000078C00750B1FFE740F21841C4F293
:100500000201086844F28102104308600AE040F2E8
:100510001841C4F2020108680022C4F281021043AB
:100520000860FFE7E1E7F1EE100A4FF6FF71C0F255
:10053000C03120EA010040F04070E1EE100A70473F
:100540005005000800000220680600003402000880
:04000005080001F9F5
:00000001FF
