:020000040800F2
:10000000600602207D0200088502000887020008C1
:10001000890200088B0200088D0200080000000021
:100020000000000000000000000000008F02000837
:1000300091020008000000009302000895020008E9
:10004000970200089702000897020008970200082C
:10005000970200089702000897020008970200081C
:10006000970200089702000897020008970200080C
:1000700097020008970200089702000897020008FC
:1000800097020008970200089702000897020008EC
:1000900097020008970200089702000897020008DC
:1000A00097020008970200089702000897020008CC
:1000B00097020008970200089702000897020008BC
:1000C00097020008970200089702000897020008AC
:1000D000970200089702000897020008970200089C
:1000E000970200089702000897020008970200088C
:1000F000970200089702000897020008970200087C
:10010000970200089702000897020008970200086B
:10011000970200089702000897020008970200085B
:10012000970200089702000897020008970200084B
:10013000970200089702000897020008970200083B
:10014000970200089702000897020008970200082B
:10015000970200089702000897020008970200081B
:10016000970200089702000897020008970200080B
:10017000970200089702000897020008000000009C
:1001800097020008970200089702000897020008EB
:1001900097020008970200089702000897020008DB
:1001A00097020008970200089702000897020008CB
:1001B00097020008970200089702000897020008BB
:1001C000970200089702000800000000970200084C
:1001D000970200089702000897020008970200089B
:1001E000970200089702000897020008970200088B
:1001F000970200089702000800F002F800F02EF8BD
:100200000AA090E8000C82448344AAF10107DA4571
:1002100001D100F023F8AFF2090EBAE80F0013F095
:10022000010F18BFFB1A43F001031847CC0200006E
:10023000DC0200000023002400250026103A28BF1D
:1002400078C1FBD8520728BF30C148BF0B60704748
:100250001FB500F044F91FBD10B510BD00F031F816
:100260001146FFF7F5FF00F003F900F04FF803B473
:10027000FFF7F2FF03BC00F057F800000948804781
:1002800009480047FEE7FEE7FEE7FEE7FEE7FEE778
:10029000FEE7FEE7FEE7FEE704480549054A064B90
:1002A0007047000001040008F90100086000022006
:1002B0006006022060020220600202207047704740
:1002C0007047754600F02CF8AE4605006946534667
:1002D00020F00700854618B020B5FFF7DDFFBDE828
:1002E00020404FF000064FF000074FF000084FF09D
:1002F000000BAC46ACE8C009ACE8C009ACE8C009EA
:10030000ACE8C00921F007018D46704710B50446DE
:10031000AFF300802046BDE81040FFF7A8BF000003
:10032000004870470000022001491820ABBEFEE7DC
:10033000260002007047000043F64001C4F20201AB
:10034000086840F00200086040F22841C4F2000151
:100350000F20086040F22C41C4F2000140F2E73067
:10036000086040F20041C4F200010120086043F639
:100370003001C4F20201086840F0020008607047D2
:1003800043F60000C4F2020000688007002814D47D
:10039000FFE743F60001C4F20201086840F00100E3
:1003A0000860FFE743F60000C4F20200006880071F
:1003B000002801D4FFE7F5E7FFE743F60801C4F2A0
:1003C0000201086808600868086008680860086832
:1003D00020F0030008600868086043F60041C4F29A
:1003E000020140F20310086043F60001C4F202016A
:1003F000086820F4803008607047000000000000AA
:100400004EF68851CEF20001086840F47000086092
:10041000704700000000000082B0019000200090B2
:10042000FFE70098019988421DD8FFE740F2244178
:10043000C4F2000100200860FFE740F21040C4F25F
:1004400000000068C00708B9FFE7F6E740F2104176
:10045000C4F20001086820F001000860FFE700987E
:1004600001300090DDE702B070470000000000009E
:1004700080B584B0002002900390FFF781FFFFF762
:100480005BFF029840F20042C4F20202116841F0A0
:100490005531116040F20441C4F20201086040F29B
:1004A0000841C4F202010860FFE740F21841C4F2BB
:1004B00002010091086844F28102104308604FF481
:1004C0007A700190FFF7A8FF009A01981168002345
:1004D000C4F2810319431160FFF79EFFE5E7F1EED7
:1004E000100A4FF6FF71C0F2C03120EA010040F05F
:1004F0004070E1EE100A7047080500080000022075
:0805000060060000340200084F
:04000005080001F9F5
:00000001FF
