:020000040800F2
:10000000600600206D0100087501000877010008F6
:10001000790100087B0100087D0100080000000054
:100020000000000000000000000000007F01000848
:10003000810100080000000083010008850100081C
:100040008701000887010008870100088701000870
:100050008701000887010008870100088701000860
:100060008701000887010008870100088701000850
:100070008701000887010008870100088701000840
:100080008701000887010008870100088701000830
:100090008701000887010008870100088701000820
:1000A0008701000887010008870100088701000810
:1000B0008701000887010008870100088701000800
:1000C00087010008870100088701000887010008F0
:1000D00087010008870100088701000887010008E0
:1000E00087010008870100088701000800F002F876
:1000F00000F02CF80AA090E8000C82448344AAF196
:100100000107DA4501D100F021F8AFF2090EBAE893
:100110000F0013F0010F18BFFB1A43F0010318473B
:1001200034030000440300000023002400250026BF
:10013000103A28BF78C1FBD8520728BF30C148BF4A
:100140000B6070471FB51FBD10B510BD00F031F832
:100150001146FFF7F7FF00F031F900F04FF803B454
:10016000FFF7F2FF03BC00F057F800000948804792
:1001700009480047FEE7FEE7FEE7FEE7FEE7FEE789
:10018000FEE7FEE7FEE7FEE704480549054A064BA1
:100190007047000055030008ED00000860000020D3
:1001A0006006002060020020600200207047704757
:1001B0007047754600F02CF8AE4605006946534678
:1001C00020F00700854618B020B5FFF7DDFFBDE839
:1001D00020404FF000064FF000074FF000084FF0AE
:1001E000000BAC46ACE8C009ACE8C009ACE8C009FB
:1001F000ACE8C00921F007018D46704710B50446F0
:10020000AFF300802046BDE81040FFF7A8BF000014
:10021000004870470000002001491820ABBEFEE7EF
:10022000260002007047000080B500F001F880BD94
:1002300084B000200390029041F20001C4F2020158
:10024000086840F480300860FFE741F20000C4F223
:100250000200006800F4003002900398013003901F
:10026000FFE702990020019039B9FFE70398B0F544
:10027000A06018BF01200190FFE70198C007002887
:10028000E3D1FFE741F20000C4F2020000688003FE
:10029000002803D5FFE70120029002E00020029031
:1002A000FFE70298012851D1FFE742F20001C4F2B2
:1002B0000201086840F010000860086820F007009C
:1002C0000860086840F00200086041F20401C4F2CE
:1002D000020100910868086008680860086840F436
:1002E00080600860086820F47C100860086840F4AA
:1002F000E810086041F20001C4F20201086840F011
:1003000080700860FFE741F20000C4F2020000685C
:100310008001002801D4FFE7F5E741F20401C4F2AF
:100320000201086820F003000860086840F002003D
:100330000860FFE741F20400C4F20200006800F028
:100340000C00082801D0FFE7F4E700E0FFE704B065
:100350007047000080B541F20002C4F2020210684A
:1003600040F00100106041F20401C4F2020108688B
:100370000023CFF6FF031840086010684FF6FF73A4
:10038000CFF6F66318401060106820F480201060EB
:10039000086820F4FE00086041F20801C4F202017E
:1003A0004FF41F000860FFF73FFF4EF60851CEF2F2
:1003B00000014FF00060086080BD000081B00020A7
:1003C000009041F21801C4F20201086840F01000E8
:1003D0000860086840F00400086041F20401C4F2BB
:1003E0000101086820F470000860086840F44010BB
:1003F000086040F60001C4F20101086820F00F0017
:100400000860086840F00800086040F60C01C4F27B
:100410000101086840F001000860FFE740F60800AD
:10042000C4F201000068C00748B1FFE741F21001C3
:10043000C4F20101086840F40050086008E041F28D
:100440001001C4F20101086840F000500860FFE7A5
:10045000E4E70000640400080000002060060000DB
:040460002801000867
:04000005080000ED02
:00000001FF
